:100000000C9439000C94010F0C94010F0C94010F07
:100010000C94010F0C94010F0C94010F0C94FB0E27
:100020000C94010F0C94010F0C94010F0C94010F10
:100030000C94010F0C94010F0C94010F0C94010F00
:100040000C94010F0C94010F0C94010F0C94010FF0
:100050000C94010F0060067280067206AE001E0648
:1000600006AE06D28006D206D6001E4206D606FC92
:10007000800011241FBECFE5D8E0DEBFCDBFE4E590
:10008000F0E040E017C0B591A5913591259105911B
:1000900007FD0CC095918591EF01F92FE82F059090
:1000A0000D92A217B307D9F7FE0104C01D92A21743
:1000B000B307E1F7E137F40731F70E94C2080C9467
:0600C0006100F894FFCF7F
:1000C6005431746F53656E64005432746F53656EA9
:0E00D60064005433746F52656365697665008B
:0600E40049444C450003F5
:1000EA002F923F924F925F926F927F928F92AF922E
:1000FA00BF92CF92DF92EF920F931F93CF93DF932A
:10010A001C013A01862E59012801C9010E94BC032B
:10011A008C01892B09F41CC186E290E00E94BC0381
:10012A00EC01892B61F0188F0F8B21E0A21AB1081C
:10013A000A0D1B1D61147104810429F431C0C80120
:10014A000E94880B05C1F301849187FC8081898F05
:10015A00F301849187FC8081882301F1AE01465E18
:10016A005F4FA82DC3010196A11DB8E06B0E711C4B
:10017A00811C2A2FFC017491A7FD7081FA017193E9
:10018A00AF01E82FF92F0196A11D349127FD308187
:10019A00332321F086159705A80559F718A201C03F
:1001AA00198EF3E0FE1520F40F2EF3E0EF2EF02D5A
:1001BA00EE8A5E0122E0A20EB11CC5010E94EB0E7E
:1001CA00CE010C960E94EB0ED987C88784E090E096
:1001DA008E1991099D878C87DB8BCA8B84E0FE017F
:1001EA00B196DF011D928A95E9F71DA2A201B1011C
:1001FA00C8010E94250799838883C114D10419F084
:10020A00F601D183C0830FB6F8940F928091FA0653
:10021A008F5F8093FA068091F2069091F306892BFC
:10022A00A9F5D093F306C093F2068091FA068130BD
:10023A00E9F58EE496E00E94970E87E596E00E9423
:10024A00970E80E696E00E94970E89E696E00E9455
:10025A00970E89EC96E00E94970E80EC96E00E9439
:10026A00970E87EB96E00E94970E8EEA96E00E9420
:10027A00970E89EC96E09093F1068093F00680EC55
:10028A0096E09093EF068093EE0610C08091F806F0
:10029A0081110CC0E091F206F091F30696898E89DD
:1002AA00891720F0D093F306C093F2068091F506E1
:1002BA008F5F8093F5068E899091F906981710F44E
:1002CA008093F90690E0FC01EE0FFF1FEE0FFF1F6F
:1002DA00EE0FFF1F8E0F9F1FFC01E25BF94F01809B
:1002EA00F281E02DFD83EC83848195819F838E8347
:1002FA00A481B5811396BC92AE921297B582A4825C
:10030A00EE89F0E0CF01880F991F880F991F880F97
:10031A00991FE80FF91FE25BF94FFB87EA87808193
:10032A008F5F80830F900FBE8091F806882361F05B
:10033A00E091F206F091F30696898E89981730F4C7
:10034A000E94810981E005C081E003C081E001C00B
:10035A008FEFDF91CF911F910F91EF90DF90CF90A8
:10036A00BF90AF908F907F906F905F904F903F902B
:04037A002F90089523
:10037E00EF92FF920F931F93CF93DF938091F4062A
:10038E00811104C1C091EC06D091ED067E018FEF74
:10039E00E81AF80AF092ED06E092EC06E114F10488
:1003AE00B9F48091F0069091F1062091EE0630910D
:1003BE00EF063093F1062093F0069093EF068093AC
:1003CE00EE068091F6068F5F8093F6060E94AA0DC8
:1003DE008091E8069091E906E816F90610F480E09F
:1003EE00B9C080E061E0E091F006F091F1069081F5
:1003FE00911107C02FEF3FEF3093E9062093E806E7
:10040E00A9C0E091F006F091F1060580F681E02D8D
:10041E000680F781E02D22813381E216F30628F45F
:10042E003093E9062093E80695C0A285B385248112
:10043E00358146815781E9015D834C832681378161
:10044E0044815581E9015B834A83AF014E5F5F4F63
:10045E0011962D913C9112972417350731F4268170
:10046E00378112963C932E931197138612869C9188
:10047E0091509C93A489B589109719F126853785DB
:10048E0000891189E9011D830C8320893189068534
:10049E001785E9011B830A8311960D911C91129702
:1004AE009F01245F3F4F0217130731F420893189D2
:1004BE0012963C932E931197158A148A9C91915003
:1004CE009C9326899091F906921710F42093F906C1
:1004DE0030E0D901AA0FBB1FAA0FBB1FAA0FBB1F6B
:1004EE002A0F3B1FD901A25BB94F11960D90BC91FB
:1004FE00A02DB583A48314962D913C911597378327
:10050E00268314962D913C911597E9015B834A83BE
:10051E0015965C934E931497A689B0E09D01220F19
:10052E00331F220F331F220F331FA20FB31FA25BE5
:10053E00B94FB387A2879C919F5F9C93A091F206BF
:10054E00B091F306268956969C91291708F44BCF45
:10055E00862F49CFE091F206F091F306268930E01E
:10056E00F901EE0FFF1FEE0FFF1FEE0FFF1F2E0FF5
:10057E003F1FF901E25BF94F9081923008F081E064
:10058E009091F706992361F081E00AC08091EA0606
:10059E009091EB0601969093EB068093EA0680E02D
:0E05AE00DF91CF911F910F91FF90EF90089574
:1005BC001F93CF93DF930FB6F8940F928091F406AC
:1005CC0081508093F4068091F4068111C6C080910D
:1005DC00FA0681119BC0C4C0DB011596ED91FC910C
:1005EC0016970680F781E02DA489B58986859785B5
:1005FC0020893189EC013D832C8380899189268562
:10060C003785EC013B832A83CF010C9611962D91F3
:10061C003C9112972817390731F4808991891296E9
:10062C009C938E931197158A148A8C9181508C937C
:10063C00A285B3858481958126813781EC013D8328
:10064C002C838681978124813581EC013B832A831D
:10065C009F012E5F3F4F11968D919C91129782179F
:10066C00930731F48681978112969C938E93119700
:10067C00138612868C9181508C9386899091F90601
:10068C00981710F48093F90690E0DC01AA0FBB1FB9
:10069C00AA0FBB1FAA0FBB1F8A0F9B1FDC01A25BFB
:1006AC00B94F11960D90BC91A02DB583A4831496CF
:1006BC008D919C9115979783868314968D919C911F
:1006CC001597EC013B832A8315963C932E93149734
:1006DC00A689B0E0CD01880F991F880F991F880F4C
:1006EC00991FA80FB91FA25BB94FB387A2878C9132
:1006FC008F5F8C93A091F206B091F3069689569673
:10070C008C91981740F04093F70605C0E0E0F0E0BC
:10071C0067EB76E041E0DB018C9181115DCFEF2B33
:10072C0011F00E94AA0DC091EA06D091EB06209719
:10073C0061F011E00E94BF0181111093F70621971F
:10074C00C9F71092EB061092EA068091F7068823FF
:10075C0031F00E94810981E003C080E001C080E09B
:0C076C000F900FBEDF91CF911F910895F8
:10077800CF92DF92EF92FF920F931F93CF93DF9365
:10078800EC010E94DF0E8091E4069091E506892B2A
:1007980041F5E6EDF6E0A2E7B0E0B183A08313826D
:1007A8001282EAE4F6E0F093E506E093E4061382A9
:1007B80012821182108288ED95E013969C938E9395
:1007C8001297ED93FC939093E1068093E006909343
:1007D800E3068093E20680E090E89093DB0680933E
:1007E800DA06E090DA06F090DB06C7018C239D2339
:1007F800892B09F06DC0209709F46DC09E012C5F0C
:100808003F4FC217D30708F069C02115310509F415
:1008180068C00091E2061091E3060217130708F476
:1008280063C0C091D606D091D706E6EDF6E002C0C7
:10083800FE01EC018A819B818217930720F488814D
:1008480099810097A9F78091E4069091E506C81769
:10085800D90709F44CC0C080D18084E0C80ED11CEF
:1008680088819981918380834A815B81421B530BE4
:100878004930510550F0CE01820F931FFC0153837C
:1008880042833B832A830E942F0A8A819B81081B0B
:10089800190B1093E3060093E2062091E0063091CD
:1008A800E1060217130720F41093E1060093E0060F
:1008B800E82AF92AFB82EA82198218828091DE06E8
:1008C8009091DF0601969093DF068093DE0611C0B3
:1008D800C12CD12C0EC0C12CD12C0BC0C12CD12CB9
:1008E80008C0C12CD12C05C0C12CD12C02C0C12CF0
:1008F800D12C0E94DE02C601DF91CF911F910F918A
:0A090800FF90EF90DF90CF9008956C
:100912002F923F924F926F927F928F92BF92CF927D
:10092200DF92EF92FF920F931F93CF93DF93CDB796
:10093200DEB728970FB6F894DEBF0FBECDBF7C019D
:100942004E835F8368873D832C8310E0BB24B3947E
:100952003C0180E8882E1301482CEAE12E0E311C5E
:10096200411CFBE16F0E711C811C670188E0C80EFF
:10097200D11C0FB6F8940F92F701928D838D9817C0
:1009820010F00230F1F4202F4E815F816885C7019B
:100992000E947C0AF7019189992361F0F1E1EF0E3F
:1009A200F11CB70180E80E944D05882331F00E94B6
:1009B200810903C081110E9481090F900FBE81E05D
:1009C20055C08C819D81892B21F40F900FBE80E050
:1009D2004DC0111105C0CE0101960E94A50E1B2D1E
:1009E2000F900FBE0E94DF0E0FB6F8940F92F70120
:1009F200858D8F3F09F4158EF701868D8F3F09F49F
:100A0200168E0F900FBEBE016C5F7F4FCE01019616
:100A12000E94970C811124C00FB6F8940F92F10135
:100A2200949147FC90810F900FBEF301849187FC53
:100A3200808198130FC06C817D81C6010E94440E93
:100A4200C7010E94DA090E94DE02811192CF0E9440
:100A520081098FCFC7010E94DA090E94DE0289CF85
:100A6200C7010E94DA090E94DE0280E028960FB6D2
:100A7200F894DEBF0FBECDBFDF91CF911F910F91D2
:100A8200FF90EF90DF90CF90BF908F907F906F900C
:080A92004F903F902F90089552
:100A9A00CF93DF93A82FCB010596A11DFC015A2FF6
:100AAA000E94BB0EDB011696ED91FC911797A48963
:100ABA00B589C685D785808991899D838C83C089AC
:100ACA00D189868597859B838A839F01245F3F4FBF
:100ADA0011968D919C9112978217930731F4808910
:100AEA00918912969C938E931197158A148A8C91E8
:100AFA0081508C938091F406811160C0A285B385E0
:100B0A00C481D581868197819D838C83C681D78153
:100B1A00848195819B838A839F012E5F3F4F119623
:100B2A008D919C9112978217930731F48681978150
:100B3A0012969C938E931197138612868C918150EC
:100B4A008C9386899091F906981710F48093F90688
:100B5A0090E0DC01AA0FBB1FAA0FBB1FAA0FBB1F85
:100B6A008A0F9B1FDC01A25BB94F11960D90BC91B5
:100B7A00A02DB583A48314968D919C911597978384
:100B8A0086831496CD91DC9115973B832A8315961B
:100B9A003C932E931497A689B0E0CD01880F991F34
:100BAA00880F991F880F991FA80FB91FA25BB94F09
:100BBA00B387A2878C918F5F8C931CC047EB56E05A
:100BCA00DA011196CD91DC911297D787C6878C816D
:100BDA009D81918B808B8C819D81DC0113963C9346
:100BEA002E9312973D832C83558B448BDA018C917B
:100BFA008F5F8C93A091F206B091F3069689569670
:100C0A008C91891720F481E08093F70601C080E077
:060C1A00DF91CF91089567
:100C20006F927F928F929F92AF92BF92CF92DF92FC
:100C3000EF92FF920F931F93CF93DF9300D000D0DA
:100C40001F92CDB7DEB78C015B015D834C83E12C35
:100C5000992493943C0180E8882E6801E1E1CE0E4E
:100C6000D11C0FB6F8940F92F801F28CFF20B9F066
:100C7000B501C8010E94E20DFA94F801F28E808558
:100C8000882349F0085F1F4FB80180E80E944D0596
:100C900081110E9481090F900FBE81E053C08C81A9
:100CA0009D81892B21F40F900FBE80E04BC0E11095
:100CB00005C0CE0101960E94A50EE92C0F900FBE33
:100CC0000E94DF0E0FB6F8940F92F801858D8F3FCA
:100CD00009F4158EF801868D8F3F09F4168E0F905A
:100CE0000FBEBE016C5F7F4FCE0101960E94970C34
:100CF00081111BC0882DB3010E94560E882379F004
:100D00006C817D81C6010E94440EC8010E94DA09EF
:100D10000E94DE028111A5CF0E948109A2CFC801E5
:100D20000E94DA090E94DE029CCFC8010E94DA0903
:100D30000E94DE02882DB3010E94560E882309F41A
:100D400090CF80E00F900F900F900F900F90DF9159
:100D5000CF911F910F91FF90EF90DF90CF90BF90B8
:0C0D6000AF909F908F907F906F9008954F
:100D6C0010C00E94D10E58F00E94CA0E40F029F417
:100D7C005F3F29F00C94E50E51110C94D90E0C9494
:100D8C00FE0E0E944D0D68F39923B1F3552391F398
:100D9C00951B550BBB27AA2762177307840738F0DE
:100DAC009F5F5F4F220F331F441FAA1FA9F335D03B
:100DBC000E2E3AF0E0E832D091505040E695001CEF
:100DCC00CAF72BD0FE2F29D0660F771F881FBB1FA9
:100DDC00261737074807AB07B0E809F0BB0B802D87
:100DEC00BF01FF2793585F4F3AF09E3F510578F0B3
:100DFC000C94E50E0C94D90E5F3FE4F3983ED4F3BB
:100E0C00869577956795B795F7959F5FC9F7880F86
:100E1C00911D9695879597F90895E1E0660F771FD8
:100E2C00881FBB1F621773078407BA0720F0621B69
:0E0E3C00730B840BBA0BEE1F88F7E095089538
:100E4A0031E1FC013083319722E220833197A3E319
:100E5A00A0833197608331977083319710823197DD
:100E6A0060E8608331971082319762E0608331973E
:100E7A0063E06083319764E06083319765E0608363
:100E8A00319766E06083319767E06083319768E065
:100E9A006083319769E06083319760E160833197BD
:100EAA003083319732E13083319733E130833197A0
:100EBA0034E13083319735E13083319736E130833D
:100ECA00319737E13083319738E13083319739E10F
:100EDA003083319730E23083319731E23083319772
:100EEA002083319723E220833197408331975083BF
:100EFA00319726E22083319727E22083319728E22F
:100F0A002083319729E22083319720E32083319788
:080F1A0021E32083869708956E
:100F220011C00E94CA0E38F00E94D10E20F039F48E
:100F32009F3F19F426F40C94FE0E0EF4E095E7FBA5
:100F42000C94E50EE92F0E944D0D58F3BA17620773
:100F520073078407950720F079F4A6F50C94D80E50
:100F62000EF4E0950B2EBA2FA02D0B01B9019001C2
:100F72000C01CA01A0011124FF27591B99F0593F06
:100F820050F4503E68F11A16F040A22F232F342F4E
:100F92004427585FF3CF469537952795A795F0409C
:100FA2005395C9F77EF41F16BA0B620B730B840BB1
:100FB200BAF09150A1F0FF0FBB1F661F771F881F69
:100FC200C2F70EC0BA0F621F731F841F48F48795C1
:100FD20077956795B795F7959E3F08F0B0CF9395B3
:0E0FE200880F08F09927EE0F979587950895D0
:100FF0008091F406882321F081E08093F70608951C
:101000001092F7062091F906822F90E0FC01EE0F76
:10101000FF1FEE0FFF1FEE0FFF1FE80FF91FE25B30
:10102000F94F3081311111C02150822F90E0FC0125
:10103000EE0FFF1FEE0FFF1FEE0FFF1FE80FF91F50
:10104000E25BF94F3081332379F3AC01440F551F34
:10105000440F551F440F551F480F591FDA01A25B5B
:10106000B94F1196ED91FC9112970280F381E02D1A
:101070001296FC93EE9311974F5A594FE417F507C8
:1010800029F442815381FD0152834183FC01EE0F1B
:10109000FF1FEE0FFF1FEE0FFF1F8E0F9F1FFC01A4
:1010A000E25BF94F0180F281E02D86819781909378
:0C10B000F3068093F2062093F9060895E1
:1010BC00EF92FF920F931F93CF93DF93FC01362F88
:1010CC00892B09F44DC0238D222309F44BC0022F28
:1010DC0010E0448DE42EF12C8FEF9FEFB8010E94AD
:1010EC00300E6E157F0508F43FC0EF010FB6F89473
:1010FC000F9260817181CB01249F800D911D112471
:10110C0095838483128E73836283015011090E9D23
:10111C00C0010F9D900D1E9D900D1124860F971FE1
:10112C00978386838FEF858F868F31110DC08085D5
:10113C00882391F02896BE0180E80E944D058823F3
:10114C0059F00E94810908C0CF0108960E94970EA1
:10115C00CE0141960E94970E0F900FBE81E005C004
:10116C0080E003C080E001C080E0DF91CF911F914F
:08117C000F91FF90EF90089520
:101184008FEF8ABB80E895E20E94C60DA2E6B0E02C
:10119400B0936100A0936000E6E6F0E0F0936F0086
:1011A400E0936E0082E390E011969C938E938AE024
:1011B40090E013969C938E9312978CE390E0918326
:1011C40080838BE090E09383828340E062E081E05F
:1011D4000E94090B90936B0080936A000091600059
:1011E40010916100C12CD12CEE24E39424E630E06C
:1011F40046EC50E060E08FE69DE00E9475000091AF
:101204006E0010916F0024E630E04FEC50E060E097
:101214008FE69DE00E9475000F2EF0E7CF2EF0E0E0
:10122400DF2EF02D6894EE24E1F800E010E024E6CF
:1012340030E048ED50E060E08BEF9BE00E947500E9
:061244000E94C80CFFCF60
:10124A000F920FB6F8940F921F9211242F923F9289
:10125A004F925F926F927F928F929F92AF92BF92BC
:10126A00CF92DF92EF92FF920F931F932F933F93A8
:10127A004F935F936F937F938F939F93AF93BF9394
:10128A00CF93DF93EF93FF93A091F206B091F30609
:10129A000DB60D920EB60D920E94BF0181110E94E9
:1012AA00F807A091F206B091F306CD91CDBFDD917A
:1012BA00DEBFFF91EF91DF91CF91BF91AF919F91E7
:1012CA008F917F916F915F914F913F912F911F91D4
:1012DA000F91FF90EF90DF90CF90BF90AF909F90CB
:1012EA008F907F906F905F904F903F902F901F90BC
:0812FA000F900FBE0F90089544
:101302000F920FB6F8940F921F9211242F923F92D0
:101312004F925F926F927F928F929F92AF92BF9203
:10132200CF92DF92EF92FF920F931F932F933F93EF
:101332004F935F936F937F938F939F93AF93BF93DB
:10134200CF93DF93EF93FF93A091F206B091F30650
:101352000DB60D920EB60D920E94F807A091F206FC
:10136200B091F306CD91CDBFDD91DEBFFF91EF913C
:10137200DF91CF91BF91AF919F918F917F916F91AB
:101382005F914F913F912F911F910F91FF90EF909D
:10139200DF90CF90BF90AF909F908F907F906F9093
:1013A2005F904F903F902F901F900F900FBE0F9025
:0213B20008959C
:1013B400CF92DF92EF920F931F93CF938C010FB6CE
:1013C400F8940F92FC01C68D1C16C4F48189811116
:1013D40006C014C0F8018189811107C00FC06801DB
:1013E400F1E1CF0ED11C80E8E82E8E2DB6010E94CB
:1013F4004D0581110E94EF0EC15061F78FEFF80186
:10140400868F0F900FBE0FB6F8940F92C58D1C16E1
:10141400C4F48085811106C014C0F801808581114F
:1014240007C00FC06801F8E0CF0ED11C80E8E82E99
:101434008E2DB6010E944D0581110E94EF0EC15000
:1014440061F78FEFF801858F0F900FBECF911F9139
:0A1454000F91EF90DF90CF90089504
:10145E00CF93DF93DC01E6EDF6E001C0F9012081C8
:10146E0031812A173B07D0F382819381AF01480F58
:10147E00591FA417B50749F412964D915C91139715
:10148E00840F951F93838283DF0112968D919C9119
:10149E001397ED01C80FD91F2C173D07D9F42091D2
:1014AE00E4063091E506C217D30781F02A813B810D
:1014BE00820F931F13969C938E931297C081D181A6
:1014CE008881998111969C938E9307C01196DC9317
:1014DE00CE9303C011963C932E93AE17BF0711F017
:0A14EE00B183A083DF91CF91089530
:1014F8000F931F93CF93DF93EC01022F1A8D2C8D3E
:101508002223B9F1011116C030E08A819B810E9423
:10151800170E2C8D8A819B81820F911D9B838A8354
:101528002C813D818217930720F1888199819B83C3
:101538008A831FC030E08E819F810E94170E8C8D98
:1015480090E09195819591092E813F81280F391F4F
:101558003F832E83488159812417350730F42C8125
:101568003D81820F931F9F838E83023011F41111E6
:1015780011501F5F1A8F80E0DF91CF911F910F915B
:021588000895C4
:10158A000F931F93CF93DF93EC010091EC06109118
:10159A00ED068091F2069091F30602960E94260DBE
:1015AA00C00FD11FE091F206F091F306D383C283F4
:1015BA00C017D10768F46091F2067091F306809122
:1015CA00EE069091EF066E5F7F4F0E94660C17C081
:1015DA006091F2067091F3068091F0069091F106FF
:1015EA006E5F7F4F0E94660C8091E8069091E90633
:1015FA00C817D90720F4D093E906C093E806DF910B
:08160A00CF911F910F9108958B
:101612000F931F93CF93DF93282F362F882361F1E7
:10162200682F70E08FEF9FEF0E94300E832F90E0C3
:101632006817790720F1239FC0011124813E4FEFE3
:10164200940700F5D32FC22F4F960E94BC038C0142
:101652000097D1F0D11104C0FC019183808304C0B2
:101662004F96F80191838083F801C38FD48F61E094
:10167200C8010E945E0808C000E010E005C000E05A
:1016820010E002C000E010E0C801DF91CF911F918D
:041692000F91089517
:10169600E89409C097FB3EF4909580957095619506
:1016A6007F4F8F4F9F4F9923A9F0F92F96E9BB27BC
:1016B6009395F695879577956795B795F111F8CF38
:1016C600FAF4BB0F11F460FF1BC06F5F7F4F8F4FA3
:1016D6009F4F16C0882311F096E911C0772321F099
:1016E6009EE8872F762F05C0662371F096E8862F31
:1016F60070E060E02AF09A95660F771F881FDAF788
:0A170600880F9695879597F90895CE
:10171000CF93DF930097A1F1FC01349722813381AD
:101720004091DA065091DB06B90164237523672BDB
:1017300039F160817181672B19F5EF014095509562
:1017400024233523338322830E94DF0E2091E20677
:101750003091E3068A819B81820F931F9093E30669
:101760008093E206CE010E942F0A8091DC069091C0
:10177000DD0601969093DD068093DC060E94DE0272
:06178000DF91CF910895F6
:101786000EEA16E00F2EFEE4EF2EF6E0FF2EF02D09
:101796008091FB06882329F10FB6F8940F92D801A1
:1017A6001596ED91FC911697C681D781CE010296CA
:1017B6000E94260D8091FA0681508093FA06809148
:1017C600FB0681508093FB060F900FBE8F89988D84
:1017D6000E94880BCE010E94880B8091FB06811126
:1017E600DBCFF7018081823098F20E948109D0CF49
:1017F600CF93DF9300D0CDB7DEB71A8219824AE0C5
:1018060050E0BE016F5F7F4F80916A0090916B0040
:101816000E941006811105C082E796E00E94880E9C
:10182600EECF89E996E00E94880EE981FA818081EF
:1018360091810E948D0DE981FA81828193810A97B7
:1018460029F485EA96E00E94880E04C082ED96E0AF
:0C1856000E94880E8DE00E94F30ED1CF9E
:101862001BBC89EF8ABD8BE08EBD89B7806189BFC1
:10187200A091F206B091F306CD91CDBFDD91DEBF0E
:10188200FF91EF91DF91CF91BF91AF919F918F9196
:101892007F916F915F914F913F912F911F910F9186
:1018A200FF90EF90DF90CF90BF90AF909F908F907E
:1018B2007F906F905F904F903F902F901F900F906E
:0A18C2000FBE0F90089581E0089515
:1018CC00CF93DF93EB01488159814F3F2FEF5207A4
:1018DC0021F4FC01A781B0850DC0DC01139601C079
:1018EC00DF011296ED91FC91139720813181421703
:1018FC005307B0F71296ED91FC911397FB83EA8393
:10190C00D583C483BD83AC831396DC93CE9312979B
:10191C0099878887FC0120812F5F2083DF91CF91ED
:02192C0008951C
:10192E000FB6F8940F922091EC063091ED06DC0183
:10193E0011964D915C911297E091F606FC91FE176F
:10194E0041F02417350728F0FB011182108281E047
:10195E0015C0241B350BDB014D915C912417350707
:10196E0048F4FB01421B530B518340830E94A50E8A
:10197E0080E004C0FB011182108281E00F900FBE47
:02198E000895BA
:10199000CF92DF92EF920F931F930F2EF6EECF2E82
:1019A000F6E0DF2EF02DE12C00E010E024E630E040
:1019B00044EE50E060E083EC9BE00E9475008130D3
:1019C00081F4F8948FEF9FEF9093E9068093E806F7
:1019D00081E08093F8061092ED061092EC060E94CA
:0E19E000310C1F910F91EF90DF90CF90089582
:1019EE000E94550D88F09F5798F0B92F9927B7513F
:1019FE00B0F0E1F0660F771F881F991F1AF0BA95A5
:101A0E00C9F714C0B13091F00E94D80EB1E008951C
:101A1E000C94D80E672F782F8827B85F39F0B93F0E
:101A2E00CCF3869577956795B395D9F73EF4909557
:0E1A3E008095709561957F4F8F4F9F4F089553
:101A4C00CF93DF93FC01A085B185C281D3818481C2
:101A5C0095819D838C83C481D581828193819B8365
:101A6C008A8311968D919C911297E817F90731F49E
:101A7C008481958112969C938E9311971186108672
:0E1A8C008C9181508C938C91DF91CF910895B5
:101A9A0057FD9058440F551F59F05F3F71F0479515
:101AAA00880F97FB991F61F09F3F79F087950895FA
:101ABA00121613061406551FF2CF4695F1DF08C019
:101ACA00161617061806991FF1CF86957105610536
:041ADA0008940895CF
:101ADE00CF93DF9300D0CDB7DEB79A838983CE0143
:101AEE0001966C0120E8E22E01E02AE030E06E2D36
:101AFE00A60180916A0090916B000E948904811169
:0C1B0E00F3CF86E896E00E94880EEECF30
:101B1A00CF93DF93CDB7DEB72B970FB6F894DEBF1E
:101B2A000FBECDBF4AE0BE016F5F7F4F0E94B00E6D
:101B3A00CE0101960E94880E2B960FB6F894DEBF4E
:0A1B4A000FBECDBFDF91CF910895CB
:101B5400E091F006F091F1068081811107C08FEFCA
:101B64009FEF9093E9068093E8060895E091F006CC
:101B7400F091F1060580F681E02D808191819093AA
:081B8400E9068093E8060895CC
:101B8C00BC0180E090E00E944B0B9B01AC0160E03B
:101B9C0074E284E799E40E94F70E20E030E040E81C
:101BAC005FE30E94C30E0E94F70C69B970BD8AB145
:081BBC0088618AB9579A089567
:101BC400FC01248D2223B1F030E046815781420F7D
:101BD400531F57834683848195814817590720F002
:101BE4008081918197838683CB014681578160E808
:061BF4000E94170E089587
:101BFA00BB27FB015527AA27880F991FAA1FA417DD
:101C0A0010F0A41B83955051B9F7A05DAA3308F0D0
:101C1A00A95DA193009779F7B111B1931192CB0104
:041C2A000C94780E90
:101C2E00CF92DF92EF92DC016A01E62E280F391F68
:101C3E00A217B30751F0F6014491E7FC40814D9392
:101C4E004FEFC41AD40AE40AF3CFEF90DF90CF908F
:021C5E000895E7
:101C6000AA1BBB1B51E107C0AA1FBB1FA617B707C2
:101C700010F0A61BB70B881F991F5A95A9F78095DE
:081C80009095BC01CD0108950F
:101C8800CF93DF93EB016091F2067091F306645FE6
:101C98007F4F0E94660C61E0CE010E94C50ADF9169
:041CA800CF9108953B
:101CAC000FB6F8940F92A82FCB014A96A11DFC01F8
:101CBC009491A7FD90810F900FBE81E0911180E06F
:021CCC00089579
:101CCE00092E0394000C11F4882352F0BB0F40F43C
:101CDE00BF2B11F460FF04C06F5F7F4F8F4F9F4F7C
:021CEE00089557
:101CF000DC01FC01672F71917723E1F7329704C073
:101D00007C916D9370836291AE17BF07C8F30895FD
:101D1000CF93DF93EC018881882331F021960E94D4
:0E1D2000F30E89918111FBCFDF91CF910895D1
:101D2E00FC010396928381832FEF3FEF348323834D
:0C1D3E0096838583908787831082089528
:101D4A002091F606FC0120832091EC063091ED06E5
:061D5A003283218308958D
:101D6000BB274A3031F4992322F4BDE29095819546
:061D70009F4F0C94FE0DD4
:101D760057FD03C06591759108956191719108951C
:0E1D86005058BB27AA270E9491070C94670EA5
:0E1D940000240A94161617061806090608956C
:0E1DA20000240A94121613061406050608956E
:0E1DB000E894BB2766277727CB0197F90895A3
:0C1DBE008091F4068F5F8093F406089576
:0C1DCA0097F99F6780E870E060E00895E2
:081DD600FC011186108608953E
:081DDE0081E08093F7060895EF
:081DE6005D9BFECF8CB908954E
:081DEE000E94B6060C94670E7A
:061DF6000E94250918956A
:061DFC009FEF80EC08954A
:041E02000C9400003C
:101E060020515545554520697320456D70747920DC
:041E160021210D0079
:101E1A002051554555452069732046554C4C202183
:031E2A00210D0087
:0C1E2D005265636569766564203D200005
:091E3900206B6D2F686F757200BB
:041E42002027430012
:00000001FF
