:100000000C9433000C94B30E0C94B30E0C94B30EFA
:100010000C94B30E0C94B30E0C94B30E0C94AD0E62
:100020000C94B30E0C94B30E0C94B30E0C94B30E4C
:100030000C94B30E0C94B30E0C94B30E0C94B30E3C
:100040000C94B30E0C94B30E0C94B30E0C94B30E2C
:100050000C94B30E006006868006860692001D6A28
:10006000069206BA800011241FBECFE5D8E0DEBF9D
:10007000CDBFE4E5F0E040E017C0B591A591359122
:100080002591059107FD0CC095918591EF01F92F00
:10009000E82F05900D92A217B307D9F7FE0104C00F
:1000A0001D92A217B307E1F7E536F40731F70E9476
:0A00B000D30C0C945B00F894FFCF12
:1000BA005431746F53656E64005432746F53656EB5
:0200CA006400D0
:0600CC0049444C4500030D
:1000D2002F923F924F925F926F927F928F92AF9246
:1000E200BF92CF92DF92EF920F931F93CF93DF9342
:1000F2001C013A01862E59012801C9010E94B00350
:100102008C01892B09F41CC186E290E00E94B003A5
:10011200EC01892B61F0188F0F8B21E0A21AB10834
:100122000A0D1B1D61147104810429F431C0C80138
:100132000E940D0B05C1F301849187FC8081898F98
:10014200F301849187FC8081882301F1AE01465E30
:100152005F4FA82DC3010196A11DB8E06B0E711C63
:10016200811C2A2FFC017491A7FD7081FA01719301
:10017200AF01E82FF92F0196A11D349127FD30819F
:10018200332321F086159705A80559F718A201C057
:10019200198EF3E0FE1520F40F2EF3E0EF2EF02D72
:1001A200EE8A5E0122E0A20EB11CC5010E949D0EE4
:1001B200CE010C960E949D0ED987C88784E090E0FC
:1001C2008E1991099D878C87DB8BCA8B84E0FE0197
:1001D200B196DF011D928A95E9F71DA2A201B10134
:1001E200C8010E940D0799838883C114D10419F0B4
:1001F200F601D183C0830FB6F8940F928091B806AE
:100202008F5F8093B8068091B0069091B106892BDA
:10021200A9F5D093B106C093B0068091B80681309B
:10022200E9F58EE396E00E94490E87E496E00E948B
:10023200490E80E596E00E94490E89E596E00E940B
:10024200490E8DE796E00E94490E84E796E00E94EF
:10025200490E8BE696E00E94490E82E696E00E94E5
:10026200490E8DE796E09093AF068093AE0684E741
:1002720096E09093AD068093AC0610C08091B606CE
:1002820081110CC0E091B006F091B10696898E8979
:10029200891720F0D093B106C093B0068091B306BF
:1002A2008F5F8093B3068E899091B706981710F4EA
:1002B2008093B70690E0FC01EE0FFF1FEE0FFF1FC9
:1002C200EE0FFF1F8E0F9F1FFC01E25CF94F0180B2
:1002D200F281E02DFD83EC83848195819F838E835F
:1002E200A481B5811396BC92AE921297B582A48274
:1002F200EE89F0E0CF01880F991F880F991F880FB0
:10030200991FE80FF91FE25CF94FFB87EA878081AA
:100312008F5F80830F900FBE8091B606882361F0B5
:10032200E091B006F091B10696898E89981730F463
:100332000E94060981E005C081E003C081E001C09E
:100342008FEFDF91CF911F910F91EF90DF90CF90C0
:10035200BF90AF908F907F906F905F904F903F9043
:040362002F9008953B
:10036600EF92FF920F931F93CF93DF938091B20684
:10037600811104C1C091AA06D091AB067E018FEF10
:10038600E81AF80AF092AB06E092AA06E114F10424
:10039600B9F48091AE069091AF062091AC063091EB
:1003A600AD063093AF062093AE069093AD068093CC
:1003B600AC068091B4068F5F8093B4060E94630DED
:1003C6008091A6069091A706E816F90610F480E03B
:1003D600B9C080E061E0E091AE06F091AF06908191
:1003E600911107C02FEF3FEF3093A7062093A60683
:1003F600A9C0E091AE06F091AF060580F681E02D2A
:100406000680F781E02D22813381E216F30628F477
:100416003093A7062093A60695C0A285B3852481AE
:10042600358146815781E9015D834C832681378179
:1004360044815581E9015B834A83AF014E5F5F4F7B
:1004460011962D913C9112972417350731F4268188
:10045600378112963C932E931197138612869C91A0
:1004660091509C93A489B589109719F126853785F3
:1004760000891189E9011D830C832089318906854C
:100486001785E9011B830A8311960D911C9112971A
:100496009F01245F3F4F0217130731F420893189EA
:1004A60012963C932E931197158A148A9C9191501B
:1004B6009C9326899091B706921710F42093B7065D
:1004C60030E0D901AA0FBB1FAA0FBB1FAA0FBB1F83
:1004D6002A0F3B1FD901A25CB94F11960D90BC9112
:1004E600A02DB583A48314962D913C91159737833F
:1004F600268314962D913C911597E9015B834A83D7
:1005060015965C934E931497A689B0E09D01220F31
:10051600331F220F331F220F331FA20FB31FA25CFC
:10052600B94FB387A2879C919F5F9C93A091B00619
:10053600B091B106268956969C91291708F44BCF9F
:10054600862F49CFE091B006F091B106268930E0BA
:10055600F901EE0FFF1FEE0FFF1FEE0FFF1F2E0F0D
:100566003F1FF901E25CF94F9081923008F081E07B
:100576009091B506992361F081E00AC08091A806A2
:100586009091A90601969093A9068093A80680E00B
:0E059600DF91CF911F910F91FF90EF9008958C
:1005A4001F93CF93DF930FB6F8940F928091B20606
:1005B40081508093B2068091B2068111C6C08091A9
:1005C400B80681119BC0C4C0DB011596ED91FC9166
:1005D40016970680F781E02DA489B58986859785CD
:1005E40020893189EC013D832C838089918926857A
:1005F4003785EC013B832A83CF010C9611962D910C
:100604003C9112972817390731F480899189129601
:100614009C938E931197158A148A8C9181508C9394
:10062400A285B3858481958126813781EC013D8340
:100634002C838681978124813581EC013B832A8335
:100644009F012E5F3F4F11968D919C9112978217B7
:10065400930731F48681978112969C938E93119718
:10066400138612868C9181508C9386899091B7065B
:10067400981710F48093B70690E0DC01AA0FBB1F13
:10068400AA0FBB1FAA0FBB1F8A0F9B1FDC01A25C12
:10069400B94F11960D90BC91A02DB583A4831496E7
:1006A4008D919C9115979783868314968D919C9137
:1006B4001597EC013B832A8315963C932E9314974C
:1006C400A689B0E0CD01880F991F880F991F880F64
:1006D400991FA80FB91FA25CB94FB387A2878C9149
:1006E4008F5F8C93A091B006B091B106968956960F
:1006F4008C91981740F04093B50605C0E0E0F0E017
:100704006BE676E041E0DB018C9181115DCFEF2B4C
:1007140011F00E94630DC091A806D091A9062097FC
:1007240061F011E00E94B30181111093B506219785
:10073400C9F71092A9061092A8068091B5068823DD
:1007440031F00E94060981E003C080E001C080E02E
:0C0754000F900FBEDF91CF911F91089510
:10076000CF92DF92EF92FF920F931F93CF93DF937D
:10077000EC010E94910E8091A2069091A306892B14
:1007800041F5E2E9F6E0A2E6B0E0B183A08313828E
:100790001282EAE3F6E0F093A306E093A206138246
:1007A00012821182108288ED95E013969C938E93AD
:1007B0001297ED93FC9390939F0680939E069093DF
:1007C000A1068093A00680E090E89093990680931C
:1007D0009806E0909806F0909906C7018C239D2317
:1007E000892B09F06DC0209709F46DC09E012C5F24
:1007F0003F4FC217D30708F069C02115310509F42E
:1008000068C00091A0061091A1060217130708F412
:1008100063C0C0919206D0919306E2E9F6E002C06F
:10082000FE01EC018A819B818217930720F4888165
:1008300099810097A9F78091A2069091A306C81705
:10084000D90709F44CC0C080D18084E0C80ED11C07
:1008500088819981918380834A815B81421B530BFC
:100860004930510550F0CE01820F931FFC01538394
:1008700042833B832A830E94B4098A819B81081B9F
:10088000190B1093A1060093A00620919E063091AB
:100890009F060217130720F410939F0600939E06ED
:1008A000E82AF92AFB82EA821982188280919C0642
:1008B00090919D06019690939D0680939C0611C091
:1008C000C12CD12C0EC0C12CD12C0BC0C12CD12CD1
:1008D00008C0C12CD12C05C0C12CD12C02C0C12C08
:1008E000D12C0E94D202C601DF91CF911F910F91AE
:0A08F000FF90EF90DF90CF90089585
:1008FA002F923F924F926F927F928F92BF92CF9296
:10090A00DF92EF92FF920F931F93CF93DF93CDB7AE
:10091A00DEB728970FB6F894DEBF0FBECDBF7C01B5
:10092A004E835F8368873D832C8310E0BB24B39496
:10093A003C0180E8882E1301482CEAE12E0E311C76
:10094A00411CFBE16F0E711C811C670188E0C80E17
:10095A00D11C0FB6F8940F92F701928D838D9817D8
:10096A0010F00230F1F4202F4E815F816885C701B3
:10097A000E94010AF7019189992361F0F1E1EF0ED2
:10098A00F11CB70180E80E944105882331F00E94DA
:10099A00060903C081110E9406090F900FBE81E06B
:1009AA0055C08C819D81892B21F40F900FBE80E068
:1009BA004DC0111105C0CE0101960E94570E1B2D84
:1009CA000F900FBE0E94910E0FB6F8940F92F70186
:1009DA00858D8F3F09F4158EF701868D8F3F09F4B7
:1009EA00168E0F900FBEBE016C5F7F4FCE0101962F
:1009FA000E94E60B811124C00FB6F8940F92F10100
:100A0A00949147FC90810F900FBEF301849187FC6B
:100A1A00808198130FC06C817D81C6010E94F60DFA
:100A2A00C7010E945F090E94D202811192CF0E94DF
:100A3A0006098FCFC7010E945F090E94D20289CF9F
:100A4A00C7010E945F090E94D20280E028960FB671
:100A5A00F894DEBF0FBECDBFDF91CF911F910F91EA
:100A6A00FF90EF90DF90CF90BF908F907F906F9024
:080A7A004F903F902F9008956A
:100A8200CF93DF93A82FCB010596A11DFC015A2F0E
:100A92000E946D0EDB011696ED91FC911797A489C9
:100AA200B589C685D785808991899D838C83C089C4
:100AB200D189868597859B838A839F01245F3F4FD7
:100AC20011968D919C9112978217930731F4808928
:100AD200918912969C938E931197158A148A8C9100
:100AE20081508C938091B206811160C0A285B3853A
:100AF200C481D581868197819D838C83C681D7816C
:100B0200848195819B838A839F012E5F3F4F11963B
:100B12008D919C9112978217930731F48681978168
:100B220012969C938E931197138612868C91815004
:100B32008C9386899091B706981710F48093B70624
:100B420090E0DC01AA0FBB1FAA0FBB1FAA0FBB1F9D
:100B52008A0F9B1FDC01A25CB94F11960D90BC91CC
:100B6200A02DB583A48314968D919C91159797839C
:100B720086831496CD91DC9115973B832A83159633
:100B82003C932E931497A689B0E0CD01880F991F4C
:100B9200880F991F880F991FA80FB91FA25CB94F20
:100BA200B387A2878C918F5F8C931CC04BE656E073
:100BB200DA011196CD91DC911297D787C6878C8185
:100BC2009D81918B808B8C819D81DC0113963C935E
:100BD2002E9312973D832C83558B448BDA018C9193
:100BE2008F5F8C93A091B006B091B106968956960C
:100BF2008C91891720F481E08093B50601C080E0D2
:060C0200DF91CF9108957F
:100C08006F927F928F92CF92DF92EF92FF920F9323
:100C18001F93CF93DF9300D000D01F92CDB7DEB7DC
:100C28008C017D836C83D12CCC24C3943C0180E857
:100C3800882E7801E1E1EE0EF11C0FB6F8940F92C0
:100C4800F801828D882391F08150828F80858823D6
:100C580049F0085F1F4FB80180E80E9441058111E3
:100C68000E9406090F900FBE81E053C08C819D81C0
:100C7800892B21F40F900FBE80E04BC0D11005C026
:100C8800CE0101960E94570EDC2C0F900FBE0E94D9
:100C9800910E0FB6F8940F92F801858D8F3F09F4E5
:100CA800158EF801868D8F3F09F4168E0F900FBEB2
:100CB800BE016C5F7F4FCE0101960E94E60B811149
:100CC8001BC0882DB3010E94080E882379F06C811F
:100CD8007D81C7010E94F60DC8010E945F090E942C
:100CE800D2028111AACF0E940609A7CFC8010E948B
:100CF8005F090E94D202A1CFC8010E945F090E9429
:100D0800D202882DB3010E94080E882309F495CFDA
:100D180080E00F900F900F900F900F90DF91CF9180
:100D28001F910F91FF90EF90DF90CF908F907F9061
:040D38006F9008951B
:100D3C0010C00E94830E58F00E947C0E40F029F4E3
:100D4C005F3F29F00C94970E51110C948B0E0C9460
:100D5C00B00E0E94240D68F39923B1F3552391F33F
:100D6C00951B550BBB27AA2762177307840738F00E
:100D7C009F5F5F4F220F331F441FAA1FA9F335D06B
:100D8C000E2E3AF0E0E832D091505040E695001C1F
:100D9C00CAF72BD0FE2F29D0660F771F881FBB1FD9
:100DAC00261737074807AB07B0E809F0BB0B802DB7
:100DBC00BF01FF2793585F4F3AF09E3F510578F0E3
:100DCC000C94970E0C948B0E5F3FE4F3983ED4F387
:100DDC00869577956795B795F7959F5FC9F7880FB7
:100DEC00911D9695879597F90895E1E0660F771F09
:100DFC00881FBB1F621773078407BA0720F0621B9A
:0E0E0C00730B840BBA0BEE1F88F7E095089568
:100E1A0031E1FC013083319722E220833197A3E349
:100E2A00A08331976083319770833197108231970D
:100E3A0060E8608331971082319762E0608331976E
:100E4A0063E06083319764E06083319765E0608393
:100E5A00319766E06083319767E06083319768E095
:100E6A006083319769E06083319760E160833197ED
:100E7A003083319732E13083319733E130833197D0
:100E8A0034E13083319735E13083319736E130836D
:100E9A00319737E13083319738E13083319739E13F
:100EAA003083319730E23083319731E230833197A2
:100EBA002083319723E220833197408331975083EF
:100ECA00319726E22083319727E22083319728E25F
:100EDA002083319729E22083319720E320833197B9
:080EEA0021E32083869708959F
:100EF20011C00E947C0E38F00E94830E20F039F45B
:100F02009F3F19F426F40C94B00E0EF4E095E7FB23
:100F12000C94970EE92F0E94240D58F3BA1762071A
:100F220073078407950720F079F4A6F50C948A0ECE
:100F32000EF4E0950B2EBA2FA02D0B01B9019001F2
:100F42000C01CA01A0011124FF27591B99F0593F36
:100F520050F4503E68F11A16F040A22F232F342F7E
:100F62004427585FF3CF469537952795A795F040CC
:100F72005395C9F77EF41F16BA0B620B730B840BE1
:100F8200BAF09150A1F0FF0FBB1F661F771F881F99
:100F9200C2F70EC0BA0F621F731F841F48F48795F1
:100FA20077956795B795F7959E3F08F0B0CF9395E3
:0E0FB200880F08F09927EE0F97958795089500
:100FC0008091B206882321F081E08093B5060895D0
:100FD0001092B5062091B706822F90E0FC01EE0F2B
:100FE000FF1FEE0FFF1FEE0FFF1FE80FF91FE25C60
:100FF000F94F3081311111C02150822F90E0FC0156
:10100000EE0FFF1FEE0FFF1FEE0FFF1FE80FF91F80
:10101000E25CF94F3081332379F3AC01440F551F63
:10102000440F551F440F551F480F591FDA01A25C8A
:10103000B94F1196ED91FC9112970280F381E02D4A
:101040001296FC93EE9311974F5B594FE417F507F7
:1010500029F442815381FD0152834183FC01EE0F4B
:10106000FF1FEE0FFF1FEE0FFF1F8E0F9F1FFC01D4
:10107000E25CF94F0180F281E02D868197819093A7
:0C108000B1068093B0062093B7060895D7
:10108C00EF92FF920F931F93CF93DF93FC01362FB8
:10109C00892B09F44DC0238D222309F44BC0022F58
:1010AC0010E0448DE42EF12C8FEF9FEFB8010E94DD
:1010BC00E20D6E157F0508F43FC0EF010FB6F894F2
:1010CC000F9260817181CB01249F800D911D1124A1
:1010DC0095838483128E73836283015011090E9D54
:1010EC00C0010F9D900D1E9D900D1124860F971F12
:1010FC00978386838FEF858F868F31110DC0808506
:10110C00882391F02896BE0180E80E94410588232F
:10111C0059F00E94060908C0CF0108960E94490E9A
:10112C00CE0141960E94490E0F900FBE81E005C082
:10113C0080E003C080E001C080E0DF91CF911F917F
:08114C000F91FF90EF90089550
:101154000F920FB6F8940F921F9211242F923F9280
:101164004F925F926F927F928F929F92AF92BF92B3
:10117400CF92DF92EF92FF920F931F932F933F939F
:101184004F935F936F937F938F939F93AF93BF938B
:10119400CF93DF93EF93FF93A091B006B091B10684
:1011A4000DB60D920EB60D920E94B30181110E94EC
:1011B400E007A091B006B091B106CD91CDBFDD910D
:1011C400DEBFFF91EF91DF91CF91BF91AF919F91DE
:1011D4008F917F916F915F914F913F912F911F91CB
:1011E4000F91FF90EF90DF90CF90BF90AF909F90C2
:1011F4008F907F906F905F904F903F902F901F90B3
:081204000F900FBE0F9008953A
:10120C000F920FB6F8940F921F9211242F923F92C7
:10121C004F925F926F927F928F929F92AF92BF92FA
:10122C00CF92DF92EF92FF920F931F932F933F93E6
:10123C004F935F936F937F938F939F93AF93BF93D2
:10124C00CF93DF93EF93FF93A091B006B091B106CB
:10125C000DB60D920EB60D920E94E007A091B0064D
:10126C00B091B106CD91CDBFDD91DEBFFF91EF9175
:10127C00DF91CF91BF91AF919F918F917F916F91A2
:10128C005F914F913F912F911F910F91FF90EF9094
:10129C00DF90CF90BF90AF909F908F907F906F908A
:1012AC005F904F903F902F901F900F900FBE0F901C
:0212BC00089593
:1012BE00CF92DF92EF920F931F93CF938C010FB6C5
:1012CE00F8940F92FC01C68D1C16C4F4818981110D
:1012DE0006C014C0F8018189811107C00FC06801D2
:1012EE00F1E1CF0ED11C80E8E82E8E2DB6010E94C2
:1012FE00410581110E94A10EC15061F78FEFF801D7
:10130E00868F0F900FBE0FB6F8940F92C58D1C16D8
:10131E00C4F48085811106C014C0F8018085811146
:10132E0007C00FC06801F8E0CF0ED11C80E8E82E90
:10133E008E2DB6010E94410581110E94A10EC15051
:10134E0061F78FEFF801858F0F900FBECF911F9130
:0A135E000F91EF90DF90CF900895FB
:10136800CF93DF93DC01E2E9F6E001C0F9012081C7
:1013780031812A173B07D0F382819381AF01480F4F
:10138800591FA417B50749F412964D915C9113970C
:10139800840F951F93838283DF0112968D919C9110
:1013A8001397ED01C80FD91F2C173D07D9F42091C9
:1013B800A2063091A306C217D30781F02A813B8188
:1013C800820F931F13969C938E931297C081D1819D
:1013D8008881998111969C938E9307C01196DC930E
:1013E800CE9303C011963C932E93AE17BF0711F00E
:0A13F800B183A083DF91CF91089527
:101402000F931F93CF93DF93EC01022F1A8D2C8D34
:101412002223B9F1011116C030E08A819B810E941A
:10142200B50D2C8D8A819B81820F911D9B838A83AE
:101432002C813D818217930720F1888199819B83BA
:101442008A831FC030E08E819F810E94B50D8C8DF2
:1014520090E09195819591092E813F81280F391F46
:101462003F832E83488159812417350730F42C811C
:101472003D81820F931F9F838E83023011F41111DD
:1014820011501F5F1A8F80E0DF91CF911F910F9152
:021492000895BB
:101494000F931F93CF93DF93EC010091AA06109151
:1014A400AB068091B0069091B10602960E94FD0CA5
:1014B400C00FD11FE091B006F091B106D383C2836F
:1014C400C017D10768F46091B0067091B10680919D
:1014D400AC069091AD066E5F7F4F0E94B50B17C0AE
:1014E4006091B0067091B1068091AE069091AF06FE
:1014F4006E5F7F4F0E94B50B8091A6069091A70660
:10150400C817D90720F4D093A706C093A606DF9185
:08151400CF911F910F91089582
:10151C000F931F93CF93DF93282F362F882361F1DE
:10152C00682F70E08FEF9FEF0E94E20D832F90E009
:10153C006817790720F1239FC0011124813E4FEFDA
:10154C00940700F5D32FC22F4F960E94B0038C0145
:10155C000097D1F0D11104C0FC019183808304C0A9
:10156C004F96F80191838083F801C38FD48F61E08B
:10157C00C8010E94460808C000E010E005C000E069
:10158C0010E002C000E010E0C801DF91CF911F9184
:04159C000F9108950E
:1015A000E89409C097FB3EF49095809570956195FD
:1015B0007F4F8F4F9F4F9923A9F0F92F96E9BB27B3
:1015C0009395F695879577956795B795F111F8CF2F
:1015D000FAF4BB0F11F460FF1BC06F5F7F4F8F4F9A
:1015E0009F4F16C0882311F096E911C0772321F090
:1015F0009EE8872F762F05C0662371F096E8862F28
:1016000070E060E02AF09A95660F771F881FDAF77E
:0A161000880F9695879597F90895C5
:10161A00CF93DF930097A1F1FC01349722813381A4
:10162A004091980650919906B90164237523672B56
:10163A0039F160817181672B19F5EF014095509559
:10164A0024233523338322830E94910E2091A006FE
:10165A003091A1068A819B81820F931F9093A106E4
:10166A008093A006CE010E94B40980919A069091B7
:10167A009B06019690939B0680939A060E94D2023B
:06168A00DF91CF910895ED
:1016900002E616E00F2EFEE3EF2EF6E0FF2EF02D11
:1016A0008091B906882329F10FB6F8940F92D801DA
:1016B0001596ED91FC911697C681D781CE010296C1
:1016C0000E94FD0C8091B80681508093B8068091ED
:1016D000B90681508093B9060F900FBE8F89988DFF
:1016E0000E940D0BCE010E940D0B8091B906811155
:1016F000DBCFF7018081823098F20E940609D0CFBB
:101700001BBC89EF8ABD8BE08EBD89B7806189BF24
:10171000A091B006B091B106CD91CDBFDD91DEBFF5
:10172000FF91EF91DF91CF91BF91AF919F918F91F9
:101730007F916F915F914F913F912F911F910F91E9
:10174000FF90EF90DF90CF90BF90AF909F908F90E1
:101750007F906F905F904F903F902F901F900F90D1
:0A1760000FBE0F90089581E0089578
:10176A00CF93DF93EB01488159814F3F2FEF520707
:10177A0021F4FC01A781B0850DC0DC01139601C0DC
:10178A00DF011296ED91FC91139720813181421766
:10179A005307B0F71296ED91FC911397FB83EA83F6
:1017AA00D583C483BD83AC831396DC93CE931297FF
:1017BA0099878887FC0120812F5F2083DF91CF9151
:0217CA00089580
:1017CC000FB6F8940F922091AA063091AB06DC016B
:1017DC0011964D915C911297E091B406FC91FE1715
:1017EC0041F02417350728F0FB011182108281E0AB
:1017FC0015C0241B350BDB014D915C91241735076B
:10180C0048F4FB01421B530B518340830E94570E3B
:10181C0080E004C0FB011182108281E00F900FBEAA
:02182C0008951D
:10182E006AE070E080916000909161000E94040671
:10183E0080919606909197060196909397068093C5
:10184E0096068CE896E00E943A0E8091960690914C
:10185E0097060E94460D8DE00E94A50E00E020E046
:10186E0030E040E050E060E08091600090916100D7
:0E187E000E947D0485E090E00E94CE0DD1CF47
:10188C006AE070E080916000909161000E94040613
:10189C008091960690919706019690939706809367
:1018AC00960686E896E00E943A0E809196069091F4
:1018BC0097060E94460D8DE00E94A50E00E020E0E8
:1018CC0030E040E050E060E0809160009091610079
:0E18DC000E947D0485E090E00E94CE0DD1CFE9
:1018EA00CF92DF92EF920F931F930F2EF4EACF2E2F
:1018FA00F6E0DF2EF02DE12C00E010E024E630E0E7
:10190A004CEC50E060E088E49BE00E946900813082
:10191A0081F4F8948FEF9FEF9093A7068093A60621
:10192A0081E08093B6061092AB061092AA060E9436
:0E193A00800B1F910F91EF90DF90CF900895DA
:101948000E942C0D88F09F5798F0B92F9927B7510E
:10195800B0F0E1F0660F771F881F991F1AF0BA954B
:10196800C9F714C0B13091F00E948A0EB1E0089511
:101978000C948A0E672F782F8827B85F39F0B93F03
:10198800CCF3869577956795B395D9F73EF49095FE
:0E1998008095709561957F4F8F4F9F4F0895FA
:1019A6008FEF8ABB80E895E20E947F0D43E060E0FE
:1019B60081E00E948E0A9093610080936000C12CA2
:1019C600D12CEE24E39400E010E024E630E04AEB6C
:1019D60050E060E087E19CE00E94690024E630E088
:1019E60043EC50E060E086E49CE00E9469000E94BF
:0419F600750CFFCF9E
:1019FA00CF93DF93FC01A085B185C281D381848115
:101A0A0095819D838C83C481D581828193819B83B7
:101A1A008A8311968D919C911297E817F90731F4F0
:101A2A008481958112969C938E93119711861086C4
:0E1A3A008C9181508C938C91DF91CF91089507
:101A480057FD9058440F551F59F05F3F71F0479567
:101A5800880F97FB991F61F09F3F79F0879508954C
:101A6800121613061406551FF2CF4695F1DF08C06B
:101A7800161617061806991FF1CF86957105610588
:041A88000894089521
:101A8C00CF93DF93CDB7DEB72B970FB6F894DEBFAD
:101A9C000FBECDBF4AE0BE016F5F7F4F0E94620E4A
:101AAC00CE0101960E943A0E2B960FB6F894DEBF2B
:0A1ABC000FBECDBFDF91CF9108955A
:101AC600E091AE06F091AF068081811107C08FEFDD
:101AD6009FEF9093A7068093A6060895E091AE0621
:101AE600F091AF060580F681E02D8081918190937B
:081AF600A7068093A6060895DF
:101AFE00BC0180E090E00E94D00A9B01AC0160E046
:101B0E0074E284E799E40E94A90E20E030E040E8F8
:101B1E005FE30E94750E0E94A40C69B970BD8AB174
:081B2E0088618AB9579A0895F5
:101B3600BB27FB015527AA27880F991FAA1FA417A1
:101B460010F0A41B83955051B9F7A05DAA3308F095
:101B5600A95DA193009779F7B111B1931192CB01C9
:041B66000C942A0EA3
:101B6A00CF92DF92EF92DC016A01E62E280F391F2D
:101B7A00A217B30751F0F6014491E7FC40814D9357
:101B8A004FEFC41AD40AE40AF3CFEF90DF90CF9054
:021B9A000895AC
:101B9C00CF93DF93EC01892B51F00E94910E60E002
:101BAC00CE010E944A0A0E94D202811102C00E94F8
:081BBC000609DF91CF910895A5
:101BC400AA1BBB1B51E107C0AA1FBB1FA617B7075F
:101BD40010F0A61BB70B881F991F5A95A9F780957B
:081BE4009095BC01CD010895AC
:101BEC00CF93DF93EB016091B0067091B106645F07
:101BFC007F4F0E94B50B61E0CE010E944A0ADF9133
:041C0C00CF910895D7
:101C10000FB6F8940F92A82FCB014A96A11DFC0194
:101C20009491A7FD90810F900FBE81E0911180E00B
:021C3000089515
:101C3200092E0394000C11F4882352F0BB0F40F4D8
:101C4200BF2B11F460FF04C06F5F7F4F8F4F9F4F18
:021C52000895F3
:101C5400DC01FC01672F71917723E1F7329704C00F
:101C64007C916D9370836291AE17BF07C8F308959A
:101C7400CF93DF93EC018881882331F021960E9471
:0E1C8400A50E89918111FBCFDF91CF910895BC
:101C9200FC010396928381832FEF3FEF34832383EA
:0C1CA200968385839087878310820895C5
:101CAE002091B406FC0120832091AA063091AB0648
:061CBE003283218308952A
:101CC400BB274A3031F4992322F4BDE290958195E3
:061CD4009F4F0C949C0DD3
:101CDA0057FD03C0659175910895619171910895B9
:0E1CEA005058BB27AA270E9479070C94190EA8
:0E1CF80000240A941616170618060906089509
:0E1D060000240A94121613061406050608950A
:0E1D1400E894BB2766277727CB0197F908953F
:0C1D22008091B2068F5F8093B206089596
:0C1D2E0097F99F6780E870E060E008957E
:081D3A00FC01118610860895DA
:081D420081E08093B5060895CD
:081D4A005D9BFECF8CB90895EA
:081D52000E949E060C94190E7C
:061D5A000E94AA08189582
:061D60009FEF80EC0895E6
:041D66000C940000D9
:061D6A005432203D200070
:061D70005431203D20006B
:00000001FF
